:0400000017C09AC0CB
:10000400FDCFDBC0ACC0FACF9EC0F8CFF7CFF6CFA0
:10001400F5CFF4CFF3CFF2CFF1CFF0CFEFCFEECFD8
:10002400EDCF7B7A7870604000000000F894EE27F2
:10003400ECBBF1E0FBBFEBBFE5BFF8E1F1BDE1BD17
:100044008DE0A2E0BB27ED938A95E9F780E094E088
:10005400A0E6ED930197E9F7EEE2F0E08591959142
:10006400009761F0A591B59105901590BF01F0013D
:1000740005900D920197E1F7FB01F0CFEFE5EDBF9D
:10008400E4E0EEBFC0E6D1E09DC0E0916401F091F0
:100094006501309751F4E0916601E0936001E0E07E
:1000A400E0936101E093620142C0E130A0E0FA070D
:1000B40071F4E7E0E0936001A1E6B1E0E09166014C
:1000C400F0916701EC93E0E0E093620130C0E2302C
:1000D400A0E0FA0771F4E7E0E0936001E0936101C6
:1000E400A2E6B1E0E0916601F0916701EC93E0E0F3
:1000F4001EC0E330A0E0FA0779F4E7E0E093600182
:10010400E0936101E0936201A3E6B1E0E09166014E
:10011400F0916701EC930DC0E430A0E0FA0749F4D4
:10012400E7E0E0936001E0936101E0936201E09312
:1001340063010895EA93FA936CB47DB4E0E0F0E0CF
:10014400FDBDECBD09C0EA93FA93E0EBFEE03F018C
:10015400E0E0F0E0FDBDECBDF991E99118950A925B
:10016400EA93FA93EFB7EA93E52DE03019F4C098D7
:10017400C19A0EC0E13019F4C198C79A09C0E2309F
:1001840019F4C798C69A04C0E33061F4C698C09ABB
:10019400E52DF0E0E05AFE4FE081F0E0EA5DFF4F2C
:1001A400049002BA5394E4E0E51509F45524E99166
:1001B400EFBFF991E99109901895EA93E0E0E8BB63
:1001C400E9911895E0E0E8BBE3ECE7BBE0E0E5BBD0
:1001D400E4BBE4E0E2BBEBE7E1BBE0E0EFBDE5E07C
:1001E400EEBDE0E0F0E0FDBDECBDE7BDE6BDE7E05F
:1001F400EBBDE7EBEABDE0E0E9BDE8BDE2BDE4E06C
:10020400E5BDE0E0E4BDE0E6E3BDEBB7E064EBBFF1
:10021400E3E0E5BFE0E4EABFE9BFE0E8E8B9E0E035
:10022400E0BF7894E7E0E0936001E0936101E0933C
:100234006201E0936301ECE2F1E0FA93EA934CD0BB
:10024400E4E0F0E05F0100240A140B04ECF4E6E0BF
:10025400F0E04F01E1E0F0E08E169F068CF0F5012E
:100264003197E05AFE4FDF01F4013197EC93E9E155
:10027400F0E0FA93EA9330D0F40131974F01EACFDA
:10028400F50131975F01DFCFE0E5E9BF989B02C03C
:10029400E0ED01C0E0E5E9BFF301A3E5B7E02CD050
:1002A4006F01D601E6E0F0E03FD0DF01F601EA1B82
:1002B400FB0BDF01E6E0F0E032D0E0936401F09361
:1002C4006501D601E6E0F0E02FD0E0936601F093FB
:1002D4006701DBDEDBCFFFCFE991F991309639F08E
:1002E40080ED97E00197F1F7A8953197C9F7089544
:1002F400F195E195F04008950024112490E1AA0FAE
:10030400BB1F001C111C0E1A1F0A18F40E0E1F1E10
:1003140001C0A1609A9599F7FD01D001089512D00A
:10032400EBDF0EF4E5DF0895E894B7FF04C0A09571
:10033400B09511966894F7FDDBDFDEDFFD010EF466
:10034400D7DF0895E894F7FF02C0D2DF6894B7FFBF
:1003540006C0A095B095119600F8039400FA08958C
:00000001FF
